{
  "_format": "hh-sol-artifact-1",
  "contractName": "CampaignFactory",
  "sourceName": "contracts/Campaign.sol",
  "abi": [
    {
      "anonymous": false,
      "inputs": [
        {
          "indexed": false,
          "internalType": "string",
          "name": "title",
          "type": "string"
        },
        {
          "indexed": false,
          "internalType": "uint256",
          "name": "requiredAmount",
          "type": "uint256"
        },
        {
          "indexed": true,
          "internalType": "address",
          "name": "owner",
          "type": "address"
        },
        {
          "indexed": false,
          "internalType": "address",
          "name": "campaignAddress",
          "type": "address"
        },
        {
          "indexed": false,
          "internalType": "string",
          "name": "imgURI",
          "type": "string"
        },
        {
          "indexed": true,
          "internalType": "uint256",
          "name": "timestamp",
          "type": "uint256"
        },
        {
          "indexed": true,
          "internalType": "string",
          "name": "category",
          "type": "string"
        }
      ],
      "name": "campaignCreated",
      "type": "event"
    },
    {
      "inputs": [
        {
          "internalType": "string",
          "name": "campaignTitle",
          "type": "string"
        },
        {
          "internalType": "uint256",
          "name": "requiredCampaignAmount",
          "type": "uint256"
        },
        {
          "internalType": "string",
          "name": "imgURI",
          "type": "string"
        },
        {
          "internalType": "string",
          "name": "category",
          "type": "string"
        },
        {
          "internalType": "string",
          "name": "storyURI",
          "type": "string"
        }
      ],
      "name": "createCampaign",
      "outputs": [],
      "stateMutability": "nonpayable",
      "type": "function"
    },
    {
      "inputs": [
        {
          "internalType": "uint256",
          "name": "",
          "type": "uint256"
        }
      ],
      "name": "deployedCampaigns",
      "outputs": [
        {
          "internalType": "address",
          "name": "",
          "type": "address"
        }
      ],
      "stateMutability": "view",
      "type": "function"
    }
  ],
  "bytecode": "0x6080604052348015600f57600080fd5b506114568061001f6000396000f3fe608060405234801561001057600080fd5b50600436106100365760003560e01c8063339d50a51461003b578063c658857d1461006b575b600080fd5b61005560048036038101906100509190610233565b610087565b60405161006291906102a1565b60405180910390f35b61008560048036038101906100809190610402565b6100c6565b005b6000818154811061009757600080fd5b906000526020600020016000915054906101000a900473ffffffffffffffffffffffffffffffffffffffff1681565b600085858584336040516100d9906101dc565b6100e795949392919061057b565b604051809103906000f080158015610103573d6000803e3d6000fd5b5090506000819080600181540180825580915050600190039060005260206000200160009091909190916101000a81548173ffffffffffffffffffffffffffffffffffffffff021916908373ffffffffffffffffffffffffffffffffffffffff16021790555082604051610177919061061f565b6040518091039020423373ffffffffffffffffffffffffffffffffffffffff167ff932d905365211c7f19fda44bcb55b1adbe63365f7cdae1c35ddcb3e38ed1d468989868a6040516101cc9493929190610636565b60405180910390a4505050505050565b610d978061068a83390190565b6000604051905090565b600080fd5b600080fd5b6000819050919050565b610210816101fd565b811461021b57600080fd5b50565b60008135905061022d81610207565b92915050565b600060208284031215610249576102486101f3565b5b60006102578482850161021e565b91505092915050565b600073ffffffffffffffffffffffffffffffffffffffff82169050919050565b600061028b82610260565b9050919050565b61029b81610280565b82525050565b60006020820190506102b66000830184610292565b92915050565b600080fd5b600080fd5b6000601f19601f8301169050919050565b7f4e487b7100000000000000000000000000000000000000000000000000000000600052604160045260246000fd5b61030f826102c6565b810181811067ffffffffffffffff8211171561032e5761032d6102d7565b5b80604052505050565b60006103416101e9565b905061034d8282610306565b919050565b600067ffffffffffffffff82111561036d5761036c6102d7565b5b610376826102c6565b9050602081019050919050565b82818337600083830152505050565b60006103a56103a084610352565b610337565b9050828152602081018484840111156103c1576103c06102c1565b5b6103cc848285610383565b509392505050565b600082601f8301126103e9576103e86102bc565b5b81356103f9848260208601610392565b91505092915050565b600080600080600060a0868803121561041e5761041d6101f3565b5b600086013567ffffffffffffffff81111561043c5761043b6101f8565b5b610448888289016103d4565b95505060206104598882890161021e565b945050604086013567ffffffffffffffff81111561047a576104796101f8565b5b610486888289016103d4565b935050606086013567ffffffffffffffff8111156104a7576104a66101f8565b5b6104b3888289016103d4565b925050608086013567ffffffffffffffff8111156104d4576104d36101f8565b5b6104e0888289016103d4565b9150509295509295909350565b600081519050919050565b600082825260208201905092915050565b60005b8381101561052757808201518184015260208101905061050c565b60008484015250505050565b600061053e826104ed565b61054881856104f8565b9350610558818560208601610509565b610561816102c6565b840191505092915050565b610575816101fd565b82525050565b600060a08201905081810360008301526105958188610533565b90506105a4602083018761056c565b81810360408301526105b68186610533565b905081810360608301526105ca8185610533565b90506105d96080830184610292565b9695505050505050565b600081905092915050565b60006105f9826104ed565b61060381856105e3565b9350610613818560208601610509565b80840191505092915050565b600061062b82846105ee565b915081905092915050565b600060808201905081810360008301526106508187610533565b905061065f602083018661056c565b61066c6040830185610292565b818103606083015261067e8184610533565b90509594505050505056fe608060405234801561001057600080fd5b50604051610d97380380610d97833981810160405281019061003291906102bd565b846000908161004191906105a3565b5083600181905550826002908161005891906105a3565b50816003908161006891906105a3565b5080600460006101000a81548173ffffffffffffffffffffffffffffffffffffffff021916908373ffffffffffffffffffffffffffffffffffffffff1602179055505050505050610675565b6000604051905090565b600080fd5b600080fd5b600080fd5b600080fd5b6000601f19601f8301169050919050565b7f4e487b7100000000000000000000000000000000000000000000000000000000600052604160045260246000fd5b61011b826100d2565b810181811067ffffffffffffffff8211171561013a576101396100e3565b5b80604052505050565b600061014d6100b4565b90506101598282610112565b919050565b600067ffffffffffffffff821115610179576101786100e3565b5b610182826100d2565b9050602081019050919050565b60005b838110156101ad578082015181840152602081019050610192565b60008484015250505050565b60006101cc6101c78461015e565b610143565b9050828152602081018484840111156101e8576101e76100cd565b5b6101f384828561018f565b509392505050565b600082601f8301126102105761020f6100c8565b5b81516102208482602086016101b9565b91505092915050565b6000819050919050565b61023c81610229565b811461024757600080fd5b50565b60008151905061025981610233565b92915050565b600073ffffffffffffffffffffffffffffffffffffffff82169050919050565b600061028a8261025f565b9050919050565b61029a8161027f565b81146102a557600080fd5b50565b6000815190506102b781610291565b92915050565b600080600080600060a086880312156102d9576102d86100be565b5b600086015167ffffffffffffffff8111156102f7576102f66100c3565b5b610303888289016101fb565b95505060206103148882890161024a565b945050604086015167ffffffffffffffff811115610335576103346100c3565b5b610341888289016101fb565b935050606086015167ffffffffffffffff811115610362576103616100c3565b5b61036e888289016101fb565b925050608061037f888289016102a8565b9150509295509295909350565b600081519050919050565b7f4e487b7100000000000000000000000000000000000000000000000000000000600052602260045260246000fd5b600060028204905060018216806103de57607f821691505b6020821081036103f1576103f0610397565b5b50919050565b60008190508160005260206000209050919050565b60006020601f8301049050919050565b600082821b905092915050565b6000600883026104597fffffffffffffffffffffffffffffffffffffffffffffffffffffffffffffffff8261041c565b610463868361041c565b95508019841693508086168417925050509392505050565b6000819050919050565b60006104a061049b61049684610229565b61047b565b610229565b9050919050565b6000819050919050565b6104ba83610485565b6104ce6104c6826104a7565b848454610429565b825550505050565b600090565b6104e36104d6565b6104ee8184846104b1565b505050565b5b81811015610512576105076000826104db565b6001810190506104f4565b5050565b601f82111561055757610528816103f7565b6105318461040c565b81016020851015610540578190505b61055461054c8561040c565b8301826104f3565b50505b505050565b600082821c905092915050565b600061057a6000198460080261055c565b1980831691505092915050565b60006105938383610569565b9150826002028217905092915050565b6105ac8261038c565b67ffffffffffffffff8111156105c5576105c46100e3565b5b6105cf82546103c6565b6105da828285610516565b600060209050601f83116001811461060d57600084156105fb578287015190505b6106058582610587565b86555061066d565b601f19841661061b866103f7565b60005b828110156106435784890151825560018201915060208501945060208101905061061e565b86831015610660578489015161065c601f891682610569565b8355505b6001600288020188555050505b505050505050565b610713806106846000396000f3fe6080604052600436106100705760003560e01c80638da5cb5b1161004e5780638da5cb5b146100f65780639632e72014610121578063ed88c68e1461014c578063f3ccaac01461015657610070565b806346c922d11461007557806348b9ef40146100a05780634a79d50c146100cb575b600080fd5b34801561008157600080fd5b5061008a610181565b60405161009791906104fc565b60405180910390f35b3480156100ac57600080fd5b506100b561020f565b6040516100c29190610537565b60405180910390f35b3480156100d757600080fd5b506100e0610215565b6040516100ed91906104fc565b60405180910390f35b34801561010257600080fd5b5061010b6102a3565b6040516101189190610593565b60405180910390f35b34801561012d57600080fd5b506101366102c9565b6040516101439190610537565b60405180910390f35b6101546102cf565b005b34801561016257600080fd5b5061016b6103de565b60405161017891906104fc565b60405180910390f35b6003805461018e906105dd565b80601f01602080910402602001604051908101604052809291908181526020018280546101ba906105dd565b80156102075780601f106101dc57610100808354040283529160200191610207565b820191906000526020600020905b8154815290600101906020018083116101ea57829003601f168201915b505050505081565b60015481565b60008054610222906105dd565b80601f016020809104026020016040519081016040528092919081815260200182805461024e906105dd565b801561029b5780601f106102705761010080835404028352916020019161029b565b820191906000526020600020905b81548152906001019060200180831161027e57829003601f168201915b505050505081565b600460009054906101000a900473ffffffffffffffffffffffffffffffffffffffff1681565b60055481565b60055460015411610315576040517f08c379a000000000000000000000000000000000000000000000000000000000815260040161030c9061065a565b60405180910390fd5b600460009054906101000a900473ffffffffffffffffffffffffffffffffffffffff1673ffffffffffffffffffffffffffffffffffffffff166108fc349081150290604051600060405180830381858888f1935050505015801561037d573d6000803e3d6000fd5b50346005600082825461039091906106a9565b9250508190555042343373ffffffffffffffffffffffffffffffffffffffff167fe6add99d06d9ad7fc456e746aa162eed6211c5002ef2dacdd67b8d2016822fba60405160405180910390a4565b600280546103eb906105dd565b80601f0160208091040260200160405190810160405280929190818152602001828054610417906105dd565b80156104645780601f1061043957610100808354040283529160200191610464565b820191906000526020600020905b81548152906001019060200180831161044757829003601f168201915b505050505081565b600081519050919050565b600082825260208201905092915050565b60005b838110156104a657808201518184015260208101905061048b565b60008484015250505050565b6000601f19601f8301169050919050565b60006104ce8261046c565b6104d88185610477565b93506104e8818560208601610488565b6104f1816104b2565b840191505092915050565b6000602082019050818103600083015261051681846104c3565b905092915050565b6000819050919050565b6105318161051e565b82525050565b600060208201905061054c6000830184610528565b92915050565b600073ffffffffffffffffffffffffffffffffffffffff82169050919050565b600061057d82610552565b9050919050565b61058d81610572565b82525050565b60006020820190506105a86000830184610584565b92915050565b7f4e487b7100000000000000000000000000000000000000000000000000000000600052602260045260246000fd5b600060028204905060018216806105f557607f821691505b602082108103610608576106076105ae565b5b50919050565b7f726571756972656420616d6f756e742066756c6c66696c6c6564000000000000600082015250565b6000610644601a83610477565b915061064f8261060e565b602082019050919050565b6000602082019050818103600083015261067381610637565b9050919050565b7f4e487b7100000000000000000000000000000000000000000000000000000000600052601160045260246000fd5b60006106b48261051e565b91506106bf8361051e565b92508282019050808211156106d7576106d661067a565b5b9291505056fea2646970667358221220b3c50275a994645bb169ae61e5fa61809e8415702a4b7e3bb77fe3af7c43f2d464736f6c634300081c0033a264697066735822122017e82ad47c3d91363bf0fdd40de6badc6b7ad4a660d1d3bd27438c0650f645a764736f6c634300081c0033",
  "linkReferences": {},
  "deployedLinkReferences": {}
}